:040000006F105058D5
:100004000000000000000000F4020000FC020000F8
:10001400000000002E1D0000000000000000000091
:10002400301D0000321D0000000000000000000030
:10003400341D000000000000361D00000000000018
:10004400381D00003A1D00003C1D000000000000A7
:100054003E1D0000401D0000421D0000441D000024
:10006400461D0000481D00004A1D00004C1D0000F4
:100074004E1D0000501D0000521D0000541D0000C4
:10008400561D0000581D00005A1D00005C1D000094
:100094005E1D0000601D0000621D0000641D000064
:1000A400661D0000681D00006A1D00006C1D000034
:1000B4006E1D000098080000721D0000741D0000F1
:1000C400761D0000781D00007A1D00007C1D0000D4
:1000D4007E1D0000801D00006E180000000000005E
:1000E400000000000000000000000000000000000C
:0C00F40000000000000000000000000000
:100100002A8309CA83830500230073007D16050333
:1001100085056DFA828010219421050585056313FC
:10012000D60075FA3305D64082802A8311C6230093
:10013000B3007D16050365FE8280797122D6001812
:100140002326A4FE2324B4FEB2872320D4FE232E2C
:10015000E4FCA303F4FE8327C4FEA38007008327E7
:10016000C4FE23A407008327C4FE032784FED8C748
:100170008327C4FE0947B8A38327C4FE034774FE40
:10018000D8A38327C4FE032704FED8CB8327C4FE4D
:100190000327C4FD98CF8327C4FEDC4B99E3854732
:1001A00001A88327C4FE9C4F99E3854711A081478E
:1001B0003E85325445618280011122CE00102326F3
:1001C000A4FE8327C4FE054798B30100724405616D
:1001D0008280797106D622D40018232EA4FC8327AE
:1001E000C4FD983385476312F7108327C4FDDC4BA9
:1001F0008297AA87A307F4FE8327C4FDDC23034765
:10020000F4FE6314F70A8327C4FDB8338547631EE1
:10021000F70C8327C4FD98478327C4FDDC473E972E
:100220008327C4FD98C78327C4FD984785679387B4
:1002300087BB631FF7028327C4FDB8238547630983
:10024000F7028327C4FDA38007008327C4FD054769
:10025000B8A38327C4FD9C4F0325C4FD8297832741
:10026000C4FD238107008327C4FD054798B3B5A8C3
:100270008327C4FD9847CD4763F9E7068327C4FD6C
:10028000BC23A5C78327C4FDA38007008327C4FD23
:10029000238107008327C4FD9C4F0325C4FD82975B
:1002A0008327C4FD054798B389A08327C4FD094768
:1002B000B8A38327C4FD9847D14763FCE700832791
:1002C000C4FDA38007008327C4FD9C4F0325C4FD04
:1002D00082978327C4FD23A407008327C4FD054715
:1002E000B8B38327C4FD054798B30100B250225428
:1002F00045618280411122C6000801A0411122C639
:100300000008B7E700E03707EFBE13070708B8C7D4
:10031000010001A0411106C622C40008854505451B
:10032000EF20605A85450565EF2080550100B240F9
:10033000224441018280011122CE0010B7370240D1
:100340009387074013070004D8A7B7370240938765
:1003500007401147D8B7B737024093870740138744
:10036000018798CBB7370240938707401387018BEB
:10037000D8CBB7370240938707401387018F98CFB8
:10038000B7370240938707400947BAB3B7370240EF
:10039000938707400947FAB3B7370240938707406E
:1003A0000947BAB7A30704FE29A88347F4FE1387B9
:1003B0008183BA97238007008347F4FE8507A3074C
:1003C000F4FE0347F4FE9D47E3F1E7FE0100010060
:1003D000724405618280011106CE22CC00102322D6
:1003E00004FE232404FE232604FE85454145EF2018
:1003F000804DC1672322F4FE91472326F4FE930724
:1004000044FEBE8537150140EF10303EB7070200AD
:100410002322F4FE930780042326F4FE930744FE70
:10042000BE8537150140EF10503C0100F240624498
:1004300005618280797106D622D40018232EA4FC8F
:10044000232CB4FC8327C4FDD5C77137832784FDD3
:1004500081EFB70701409C4F13F707F3B70701403F
:100460001367870898CF19A8B70701409C4F13F767
:1004700007F3B70701401367C70C98CFB73702409F
:1004800093870740238007007D35B7370240938765
:100490000740A3810700B73702409387074013073F
:1004A000900298A3B7370240938707407D57F8A37F
:1004B000B737024093870740130710F898B3B73750
:1004C0000240938707401D47B8A39307D002232615
:1004D000F4FE8327C4FEFD8B0547B316F70037E70C
:1004E00000E08327C4FE9583938707048A07BA97A1
:1004F00094C3A9A8B7070140984FB70701401377E5
:1005000007F798CFB737024093870740194798A35A
:100510002945EF203011B7370240938707402380E9
:1005200007009307D0022324F4FE832784FEFD8B6B
:100530000547B316F70037E700E0832784FE95836D
:10054000938707068A07BA9794C301000100B25047
:10055000225445618280797106D622D40018AA8778
:10056000232CB4FC3687A30FF4FCB287231EF4FCC3
:10057000BA87230FF4FC8347F4FD1D47636FF71020
:1005800013972700916793870747BA979C43828701
:10059000B7370240938747422324F4FEB73702401F
:1005A000938767422322F4FEB7370240938747417F
:1005B0002320F4FEE5A0B737024093878742232427
:1005C000F4FEB73702409387A7422322F4FEB737E1
:1005D0000240938787412320F4FEC9A0B737024029
:1005E0009387C7422324F4FEB73702409387E7423C
:1005F0002322F4FEB73702409387C7412320F4FE3D
:1006000071A8B7370240938707432324F4FEB73716
:100610000240938727432322F4FEB7370240938793
:1006200007412320F4FE9DA8B73702409387474631
:100630002324F4FEB7370240938767462322F4FE53
:10064000B7370240938747452320F4FE81A8B73788
:100650000240938787462324F4FEB73702409387EE
:10066000A7462322F4FEB73702409387874523200D
:10067000F4FE2DA0B73702409387C7462324F4FE2B
:10068000B73702409387E7462322F4FEB73702408C
:100690009387C7452320F4FE11A001008347F4FD92
:1006A0006386071E0347F4FD9D4763E1E71E83470A
:1006B000F4FD13878183BA979C2393F7F70F639513
:1006C000071C0347F4FD85476307F7000347F4FD64
:1006D00091476314F702B737024093870740DC273E
:1006E000A307F4FE0347F4FD85476315F708834726
:1006F000F4FE9183A307F4FEB5A80347F4FD8947F0
:100700006307F7000347F4FD8D476314F702B7371B
:10071000024093870740DC37A307F4FE0347F4FD4C
:100720008D476319F7048347F4FE9183A307F4FE12
:1007300091A0B737024093870740FC27A307F4FE38
:100740000347F4FD95476318F7008347F4FE8A07D3
:10075000A307F4FE19A80347F4FD9D476317F700AC
:100760008347F4FE8983A307F4FE8347F4FEF99BD5
:10077000A307F4FE8347F4FE918B6385071083473C
:10078000F4FEA18B95CB8347F4FE858B8DC3832725
:1007900044FE9E2393F7070491C7930700FC2307A9
:1007A000F4FE3DA8930700F82307F4FE15A893076D
:1007B00000042307F4FE2DA08347F4FE858B99CF18
:1007C000832744FE9E2393F7070491C793070004F1
:1007D0002307F4FE31A0230704FE19A0230704FE1B
:1007E0000347F4FD91476318F7008347E4FE9387BE
:1007F00007042307F4FE8347E4FE9DEB8347E4FDF3
:1008000089EB832784FD13F7F70F832704FE98A352
:1008100089A0832704FE9843B7070020BA973E8734
:100820008357C4FD3E86832584FD3A85D13815A0C3
:100830000347E4FE832704FE9C433E97B70700204E
:10084000BA973E878357C4FD3E86832584FD3A854B
:100850004538832784FE0357C4FD9AA3832744FEAB
:100860009E23F19B139707014183832744FE9AA39C
:100870008347F4FD13878183BA97054798A3010046
:10088000814731A0854721A0854711A085473E8536
:10089000B250225445618280011122CE0010B73738
:1008A000024093870740FC23A305F4FEB7370240BC
:1008B00093870740FC332305F4FE8347B4FE898BFE
:1008C000E38C07348347A4FE93F707031307000361
:1008D000638DE72E13070003E346F7321307000288
:1008E000638DE70013070002E34EF73063880722A9
:1008F0004147E38BE7306F00F0308347A4FE93F766
:10090000F703130720026387E71A130720026341E6
:10091000F720130700026387E70013071002638DB7
:10092000E712FDA283D7A182C207C18395EBB73737
:10093000024093870740BE33C207C183C207C18705
:1009400093F737F7C207C18793E7070813970701A3
:100950004187B73702409387074042074183BAB3C4
:1009600083C7518293F7F70F93F707066395071A2A
:1009700083C7418293F7F70F1547638DE70819473F
:10098000639AE70C83D7A1821397070141839307EA
:10099000F00363E7E70083D7A182C207C18319A0F0
:1009A000930700042316F4FE83A701820357C4FEB5
:1009B0003A86BE8513850187EFF08FF483D7A18235
:1009C000C207C1830357C4FE998F13970701418360
:1009D0002395E18203A701828357C4FE3E9723A09B
:1009E000E182B7370240938707400357C4FE9AB3AA
:1009F000B737024093870740BE33139707014183FF
:100A0000B7370240938707401347070442074183E3
:100A1000BAB391A0B737024093870740BC3393F72E
:100A2000F70FE207E18793F707F8139787016187CC
:100A300083C7D18293F7F70FE207E187D98F139726
:100A400087016187B7370240938707401377F70F15
:100A5000B8B311A00100C1A0B73702409387074087
:100A6000FE33C207C183C207C187F19BC207C1879A
:100A700093E72700139707014187B7370240938711
:100A8000074042074183FAB3B737024093870740D4
:100A9000FE33139707014183B7370240938707401E
:100AA0001347070442074183FAB393878183A380E6
:100AB00007009DA0B737024093870740BE37C207A3
:100AC000C183C207C187F19BC207C18793E7270093
:100AD000139707014187B7370240938707404207C2
:100AE0004183BAB7B737024093870740BE371397A1
:100AF00007014183B7370240938707401347070434
:100B000042074183BAB7938781832381070029A0D5
:100B100001006F00900F01006F00300F8347A4FEAB
:100B200093F7F703C9EF8347A4FE93F70704B9C30C
:100B300083C7518293F7F70F93F7070685CF83C7D3
:100B4000518293F7F70F13F7070693070002631319
:100B5000F70283C7418293F7F70F3E87A547631AD1
:100B6000F7009387018798232384E18423950182EA
:100B700011A0010083D7A182C207C183A1E7B737C3
:100B800002409387074023900702B73702409387BC
:100B90000740BE33C207C183C207C18793F7C7FBB3
:100BA000C207C18793E70704139707014187B73747
:100BB00002409387074042074183BAB321A0010056
:100BC0006F00B00401006F005004B73702409387F4
:100BD00007401307A00CBAB3938701879823A38219
:100BE000E1829387018798332382E182938701878B
:100BF000F823FC33A207D98F13970701418323956C
:100C0000E18293870187B823BC33A207D98F13975A
:100C1000070141832393E18293870187D823DC3343
:100C2000A207D98F1397070141832394E1822316EA
:100C300004FEA30704FE83C7518293F7F70F93F7CF
:100C40000706638D071683C7518293F7F70F13F7D3
:100C50000706930700026313F76883C7418293F77F
:100C6000F70F2D476368F714139727009167938751
:100C70000749BA979C43828783D78182C207C18381
:100C800089EF83D76182C207C183A183C207C18371
:100C900013F7F70F2388E18291A583D781821397F9
:100CA000070141838547631FF70083D76182C2072D
:100CB000C183A183C207C18313F7F70F9387018311
:100CC00098B329ADFD57A307F4FE09AD83D7818200
:100CD000C207C18391EB83D76182C207C18313F737
:100CE000F70F238AE182DDAB83D781821397070157
:100CF00041838547631CF70083D76182C207C183A4
:100D000013F7F70F9387418398B3C9ABFD57A30738
:100D1000F4FEE9A383D78182C207C18381EF83C731
:100D2000018313F7F70F9387018798A3854723164D
:100D3000F4FE6DA383D78182139707014183854712
:100D4000631EF700938701839C3313F7F70F938794
:100D5000018798A385472316F4FE49A3FD57A307EF
:100D6000F4FEADAB83D78182C207C18381EF83C715
:100D7000418313F7F70F9387018798A385472316BD
:100D8000F4FEA9AB83D7818213970701418385477E
:100D9000631EF700938741839C3313F7F70F938704
:100DA000018798A385472316F4FE0DABFD57A307D3
:100DB000F4FE2DA3FD57A307F4FE0DA383C74182C4
:100DC00093F7F70F2D47636EF74E13972700916740
:100DD0009387074CBA979C43828783D76182C20767
:100DE000C183A183C207C18393F7F70F13072002C2
:100DF000636DF7161397270091679387074FBA978C
:100E00009C43828711671307C75723A0E18291672C
:100E10009387C7579C232316F4FEA1AA11671307D3
:100E2000075923A0E182916793870759BC233E8726
:100E3000916793870759BC33A207C207C183BA974A
:100E40002316F4FE3DA283D78182C207C18391EBB2
:100E500011671307275A23A0E182A5472316F4FE42
:100E600009AA83D781821397070141838547631BB2
:100E7000F70011671307B75B23A0E182A54723168C
:100E8000F4FEC5A8FD57A307F4FEE5A083D7818231
:100E9000C207C18399EB11671307C75C23A0E182E6
:100EA0009307E0032316F4FEE9A083D7818213970A
:100EB000070141838547631CF70011671307C7606B
:100EC00023A0E182930740032316F4FE5DA0FD57A3
:100ED000A307F4FE79A883D76182C207C18393F781
:100EE000F70F0D476382E7060D47634BF706094787
:100EF0006380E70409476345F70689C70547638DA3
:100F0000E700B9A81387818123A0E18293878181BB
:100F10009C232316F4FE89A811671307076423A0F6
:100F2000E1829167938707649C232316F4FE2DA822
:100F300011671307076523A0E1829167938707650F
:100F40009C232316F4FE0DA011671307C76623A088
:100F5000E18291679387C7669C232316F4FE29A03C
:100F6000FD57A307F4FE010029A0FD57A307F4FED7
:100F7000010083D7A182C207C1830357C4FE6376F1
:100F8000F7000357C4FE2395E18283D7A18213970C
:100F9000070141839307F00363E7E70083D7A1824A
:100FA000C207C18319A0930700042316F4FE83A788
:100FB00001820357C4FE3A86BE8513850187EFF090
:100FC0002F9403A701828357C4FE3E9723A0E1829A
:100FD00031A683D76182C207C18313F7F70FA386B7
:100FE000E182EDAC83C7C18213F7F70F93870187C6
:100FF00098A383D7A182139707014183854763FA9A
:10100000E72C05472395E182E9A483D76182C207D3
:10101000C18313F7F70F2386E1820547A387E18297
:1010200075AC83C7518293F7F70FFD8B85EB83D7A0
:101030006182C207C18313F7F70F8547631CF7006E
:1010400083C7E18293F7F70FF99B13F7F70F238715
:10105000E18269A4FD57A307F4FE49A483C7518226
:1010600093F7F70F13F7F7018947631EF70483D748
:101070006182C207C18393F7F70FB1E383D78182FF
:10108000C207C18393F7F70F130710086387E700C0
:1010900013072008638AE70039A8B737024093870F
:1010A00007400947FAB325A0B737024093870740A6
:1010B0000947BAB729A8FD57A307F4FE09A8FD57A9
:1010C000A307F4FE21ACFD57A307F4FE01AC39A43D
:1010D00083C7518293F7F70FFD8BA1E783D7618216
:1010E000C207C18313F7F70F85476318F7029167AB
:1010F00093870759FC3393F7070281CF83C7E182B7
:1011000093F7F70F93E7170013F7F70F2387E182A1
:10111000F1A2FD57A307F4FED1A2FD57A307F4FEE9
:1011200075AA83C7518293F7F70F13F7F701894721
:101130006314F70883D76182C207C18393F7F70F5F
:10114000A5EB83D78182C207C18393F7F70F1307FB
:1011500010086387E700130720086385E702A9A04A
:10116000B737024093870740FE3313970701418347
:10117000B737024093870740136737004207418320
:10118000FAB33DA8B737024093870740BE3713979D
:1011900007014183B7370240938707401367370041
:1011A00042074183BAB729A8FD57A307F4FE09A84F
:1011B000FD57A307F4FE1DA2FD57A307F4FE39AAAD
:1011C00031AA938701872380070083D7A1821397D1
:1011D00007014183854763F0E71005472395E182C6
:1011E000DDA8938701872380070093870187A38069
:1011F000070083C7518293F7F70FFD8B8DE383C7F9
:10120000E18293F7F70F858B91C793870187094791
:1012100098A361A8938701872380070079A083C7DB
:10122000518293F7F70F13F7F7018947631CF7060D
:1012300083D78182C207C18313F7F70F9307100882
:101240006313F702B737024093870740FE33C207A4
:10125000C18313F737008D476319F704938701871C
:10126000054798A399A083D78182C207C18313F74A
:10127000F70F930720086313F702B73702409387ED
:101280000740BE37C207C18313F737008D47631E7F
:10129000F70093870187054798A301A8FD57A30787
:1012A000F4FE21A0FD57A307F4FE83D7A182139774
:1012B00007014183894763F2E70209472395E182E9
:1012C00029A8FD57A307F4FE11A8010001A80100F9
:1012D00031A0010021A0010011A001000347F4FE8C
:1012E0009307F00F631AF700B73702409387074060
:1012F0001307F00CBAB311AA83C7518293F7F70F03
:10130000E207E18763D1070883D7A182139707011A
:1013100041839307000463E7E70083D7A182C207F4
:10132000C18319A0930700042316F4FE83D7A1827A
:10133000C207C1830357C4FE998F139707014183E6
:101340002395E182B7370240938707400357C4FED5
:101350009AB3B737024093870740BE33C207C183B1
:10136000C207C18793F7C7FBC207C18793E707048A
:10137000139707014187B737024093870740420719
:101380004183BAB359A083D7A182C207C183A9E31D
:10139000B73702409387074023900702B7370240D0
:1013A00093870740BE33C207C183C207C18793F743
:1013B000C7FBC207C18793E707041397070141875B
:1013C000B73702409387074042074183BAB335A835
:1013D000B737024093870740BE33C207C183C207B5
:1013E000C18793F737F7C207C18793E707081397B9
:1013F00007014187B737024093870740420741837F
:10140000BAB321A0010011A00100B73702409387B1
:1014100007400947F8A37DA08347B4FE858B85CBA1
:1014200023860182A386018223870182A38701820A
:10143000B737024093870740A3810700EFE0BFEF73
:10144000B7370240938707400547F8A3A5A883470D
:10145000B4FE918BADC3B737024093870740114765
:10146000F8A32945EF10101CB737024093870740B7
:10147000DC3393F7F70F918B8DC783C7E18293F726
:10148000F70F93E7270013F7F70F2387E18283C74E
:10149000E18213F7F70F8D476316F702EF00F002B2
:1014A00015A083C7E18293F7F70FF59B13F7F70FAA
:1014B0002387E18201A8B73702409387074003479B
:1014C000B4FEF8A30100724405617300203041119D
:1014D00006C622C40008EF10402CAA87A5EBB71758
:1014E000014037070200050798D3B7170140DC4FCA
:1014F00013F707F0B717014013678708D8CFB7076E
:1015000001409C4F13F757FFB707014013672700AF
:1015100098CF2145EF103019B70701409C4F13F7C2
:1015200057FFB70701401367870098CFB7170140EF
:10153000DC4F13F707F0B717014013674708D8CF00
:10154000B71701404167090798D3BDA0B7170140FD
:1015500037070200050798D3B7170140DC4F13F790
:1015600007F0B717014013678708D8CFB7070140C6
:101570009C4F13F707FFB70701401367370098CF59
:101580002145EF105012B70701409C4F13F707FF9A
:10159000B70701401367C70098CFB7170140DC4F6A
:1015A00013F707F0B717014013674708D8CFB717ED
:1015B00001404167090798D30100B240224441012C
:1015C0008280411106C622C400080545EF00D07094
:1015D000312AEF101001F16713850720EF10D014A6
:1015E000B707002083A7871ABE8591671385073345
:1015F000EF10D028EF007001AA87BE859167138590
:101600000734EF10B0278129F92991671385073531
:10161000EF10B03A89671387A78C8967938627A153
:101620000146A94513850193EFE03FB18967138710
:10163000E7968967938647A30146A9451385C19418
:10164000EFE0BFAF13850193EFE01FB71385C1949F
:10165000EFE09FB6B707002003A7871A8967938733
:101660000771B357F702C207C183FD17C207C183D1
:10167000BE850545892A916713854736EF10F033FB
:10168000EFE05FC9EF106011AA87BE850545EFE066
:101690007FDAD52B83C7F18293F7F70FE5DF91232C
:1016A000D5BF411106C622C40008B71702409843AF
:1016B000B71702401367170098C3B7170240D84303
:1016C000B717024013670705D8C3B7170240D443C2
:1016D000B7170240370700F91307F7F5758FD8C31E
:1016E00069200100B240224441018280011122CED2
:1016F0000010232604FEB70700203777DC0213070B
:1017000007C023A4E71AB7170240DC439183BD8BBF
:101710003707002013070700BA979C2393F7F70FAA
:101720002326F4FEB7170240DC4393F7070891EF36
:10173000B707002003A7871A8327C4FE3357F70291
:10174000B707002023A4E71A29A8B707002003A79A
:10175000871A8327C4FE3357F700B707002023A456
:10176000E71A0100724405618280411106C622C455
:10177000000831200100B240224441018280411121
:1017800022C60008B72702409843B7270240719B42
:1017900098C3B72702409843B72702401367270032
:1017A00098C3B7170240D843B71702401377F7F032
:1017B000D8C337170240B71702405843D8C30100B7
:1017C000324441018280397106DE22DC8000AA8722
:1017D0002E872317F4FCBA872316F4FC232204FE79
:1017E000232404FE231604FE232E04FC232004FEDF
:1017F00085450945EF1080118357E4FC2314F4FE5E
:101800008357C4FC2312F4FE231504FE231304FEA5
:10181000930744FEBE85B707004013850740EF10CD
:10182000401305468545B707004013850740EF1074
:10183000002493076003230EF4FC8547A30EF4FCF9
:101840008947230FF4FC85472320F4FE9307C4FD4A
:101850003E85EF00104A8545B707004013850740D5
:10186000EF10E01B0100F2506254216182804111AF
:1018700022C600088545B707004013850740EF10D2
:101880006025AA8795CF8545B70700401385074097
:10189000EF10C02A83A7C1841387170023A6E18411
:1018A00093878196984B85679387773863EAE7003B
:1018B000938781969C4B138717009387819698CBCB
:1018C00001003244410173002030797106D622D4E0
:1018D0000018232EA4FC8327C4FD2326F4FE8327AF
:1018E000C4FEBC230947638AE70609476349F70634
:1018F00089C705476387E7069DA08565B71701403F
:10190000138507C0EF00303193878196B8379D4724
:1019100063ECE70293878196BC37138717009376B1
:10192000F70F1387819634B73E8793878196BA97CE
:101930001307E00298A393878196BC373E8793876D
:101940008196BA97238007009387819623860700A4
:101950009387819623A8070031A0010021A00100F0
:1019600011A001000100B2502254456182807971BA
:1019700006D622D40018232EA4FC8327C4FD2326D8
:10198000F4FE8327C4FEBC230947638AE7060947A0
:101990006349F70689C705476387E7069DA0856504
:1019A000B7170140138507C0EF00B02393878196D6
:1019B000B8379D4763ECE70293878196BC3713875E
:1019C00017009376F70F1387819634B73E87938776
:1019D0008196BA971307D00298A393878196BC3754
:1019E0003E8793878196BA972380070093878196D5
:1019F000238607009387819623A8070031A0010062
:101A000021A0010011A001000100B2502254456143
:101A10008280411106C622C400088545B7170140DF
:101A2000138507C0EF007018AA873E85B240224494
:101A300041018280411106C622C400088945B717BA
:101A40000140138507C0EF005016AA873E85B240BB
:101A5000224441018280011106CE22CC00102322B3
:101A600004FE232404FE232604FE85452145EF00C1
:101A700090658D472322F4FE930780042326F4FE0D
:101A800085472324F4FE930744FEBE85B717014023
:101A9000138507C0992B85672322F4FEC1472326AF
:101AA000F4FE85472324F4FE930744FEBE85B71752
:101AB0000140138507C0152B93878196238007006B
:101AC00093878196A3850700938781960547D8A7BA
:101AD0009387819605671307873898CB0100F240FA
:101AE000624405618280011106CE22CC00102320C1
:101AF00004FE232204FE232404FE232604FE85453F
:101B00000545EF00505C81450545EF00D012854743
:101B10002320F4FE91472322F4FEB1472324F4FE50
:101B200085472326F4FE930704FE3E85DD2C85457C
:101B30000545EF00501089472320F4FE91472322EA
:101B4000F4FEB1472324F4FE85472326F4FE9307D1
:101B500004FE3E85F924B707014093870740984368
:101B6000B7070140938707401367370098C3010008
:101B7000F240624405618280797106D622D4001851
:101B8000232EA4FC232604FE89A0B7070020138778
:101B900007018327C4FE8E07BA979C43BE850325A1
:101BA000C4FDEFE04FD7AA8781EFB7070020138766
:101BB00007018327C4FE8E07BA978387470029A8A9
:101BC0008327C4FE85072326F4FE0327C4FE93075C
:101BD0004002E3FCE7FA81473E85B250225445615A
:101BE0008280411106C622C4000803A7C184A94708
:101BF000B377F70289EB13850193EFE08FDD13854F
:101C0000C194EFE00FDD93878196DC27A5EB9387E6
:101C10008196984B9307807063F2E706138581964F
:101C2000A13FAA8713F7F70F93870184B8A38546CE
:101C30002146938501840545EFE0FF9193878196C6
:101C40002380070093878196A38507009387819659
:101C50000547D8A79387819605671307873898CBE0
:101C60002945EF104024938701842381070085468E
:101C70002146938501840545EFE0FF8D0100B240C8
:101C8000224441018280011106CE22CC0010232083
:101C900004FE232204FE232404FE232604FEB707A9
:101CA00000102320F4FE91472322F4FEA1472324B1
:101CB000F4FE85472326F4FE930704FE3E85952215
:101CC0000100F240624405618280411106C622C4CF
:101CD0000008916713850746EF10204E9307800890
:101CE00073B0078001000D45CD240945EF00701445
:101CF000EFF03F9BEFF09F9FEFE0CFE10D45512CC0
:101D0000AA8789C70D45D124EFF06FFC930780089F
:101D100073A007800100916713858746EF10E049A3
:101D20000100B24022444101828001A001A001A033
:101D300001A001A001A001A001A001A001A001A09B
:101D400001A001A001A001A001A001A001A001A08B
:101D500001A001A001A001A001A001A001A001A07B
:101D600001A001A001A001A001A001A001A001A06B
:101D700001A001A001A001A001A001A001A001A05B
:101D800001A001A097F1FF1F938141C217310020EC
:101D900013014127173500001305459E97E5FF1FE6
:101DA000938545261386018263FAC50083220500C8
:101DB00023A0550011059105E3EAC5FE13850182B4
:101DC0009385C1976377B500232005001105E36D66
:101DD000B5FEFD42739002BC8D4273904280930227
:101DE000800873A0023097E2FFFF9382E22193E222
:101DF000320073905230EFF0DF8A97F2FFFF938248
:101E0000827C7390123473002030411122C6000886
:101E1000B7F7FF1F938747709C433E8532444101CB
:101E20008280797122D60018232EA4FC232604FE7A
:101E3000B7070140938707402326F4FE8327C4FD9C
:101E4000DC4763800712B70701409387074094433C
:101E50008327C4FD9C4313C7F7FFB707014093874F
:101E60000740758F98C3B707014093870740D44355
:101E70008327C4FD9C4313C7F7FFB707014093872F
:101E80000740758FD8C38327C4FDDC430327C4FEF6
:101E9000BA972326F4FE8327C4FE94438327C4FD08
:101EA00098438327C4FE558F98C3B7070140938793
:101EB000074094478327C4FD9C4313C7F7FFB70728
:101EC000014093870740758F98C7B70701409387F4
:101ED0000740D4478327C4FD9C4313C7F7FFB707C8
:101EE000014093870740758FD8C78327C4FD984763
:101EF000C147631FF702B707014093870740944724
:101F00008327C4FD9843B707014093870740558F47
:101F100098C7B707014093870740D4478327C4FD7C
:101F20009843B707014093870740558FD8C7B1A89A
:101F3000B7070140938707402326F4FE8327C4FD9B
:101F40009C470327C4FEBA972326F4FE8327C4FECA
:101F500094438327C4FD98438327C4FE558F98C3B9
:101F60002DA08327C4FDDC430327C4FEBA97232694
:101F7000F4FE8327C4FE94438327C4FD9C4313C708
:101F8000F7FF8327C4FE758F98C301003254456163
:101F90008280797122D60018232EA4FC232604FE09
:101FA000B707014093870740D84B8327C4FDF98FBB
:101FB00089C785472326F4FE19A0232604FE83271C
:101FC000C4FE3E85325445618280011122CE00104C
:101FD0002326A4FEB7070140938707400327C4FECA
:101FE000D8CB0100724405618280397122DE800005
:101FF0002326A4FC2324B4FC232604FE232004FE71
:10200000232404FE232E04FC232204FE232C04FCA0
:10201000832784FC9C47BD8B2326F4FE832784FC06
:102020009C47C18B89CB832784FCDC430327C4FEF8
:10203000D98F2326F4FE832784FC9C4393F7F70F64
:10204000E1CF8327C4FC9C432322F4FE232404FE17
:1020500055A8832784FE0547B317F700232EF4FC09
:10206000832784FC9C430327C4FDF98F2320F4FEBF
:10207000032704FE8327C4FD6311F708832784FE2A
:102080008A07232EF4FC8327C4FD3D47B317F700CE
:10209000232CF4FC832784FD93C7F7FF032744FE1A
:1020A000F98F2322F4FE8327C4FD0327C4FEB31750
:1020B000F700032744FED98F2322F4FE832784FCF4
:1020C000984793078002631BF700832784FE054728
:1020D0003317F7008327C4FCD8CB05A0832784FCE3
:1020E000984793078004631AF700832784FE054707
:1020F0003317F7008327C4FC98CB832784FE85071A
:102100002324F4FE032784FE9D47E3F4E7F48327AA
:10211000C4FC032744FE98C3832784FC9843C1670B
:10212000938707F0F98F638C0718B7F7FF1F938722
:1021300047709C4393F7070FA1EB0327C4FCB71725
:102140000140938707806319F700B707002083A732
:10215000C71A2322F4FE35A80327C4FCB717014091
:10216000938707C06317F70083A781802322F4FEBB
:102170000DA00327C4FCB7170140631CF70083A719
:10218000C1802322F4FE31A08327C4FCDC43232238
:10219000F4FE232404FE65A8832784FEA1070547D7
:1021A000B317F700232EF4FC832784FC9C430327FA
:1021B000C4FDF98F2320F4FE032704FE8327C4FD0A
:1021C0006312F708832784FE8A07232EF4FC8327F3
:1021D000C4FD3D47B317F700232CF4FC832784FD8F
:1021E00093C7F7FF032744FEF98F2322F4FE8327CA
:1021F000C4FD0327C4FEB317F700032744FED98F9D
:102200002322F4FE832784FC984793078002631BF4
:10221000F700832784FEA10705473317F7008327BC
:10222000C4FCD8CB832784FC984793078004631BA6
:10223000F700832784FEA10705473317F70083279C
:10224000C4FC98CB832784FE85072324F4FE032750
:1022500084FE9D47E3F2E7F48327C4FC032744FE92
:10226000D8C3B7F7FF1F938747709C4393F7070FB7
:10227000B9E70327C4FCB7170140938707806319A8
:10228000F700B7070020032744FE23A6E71A05A896
:102290000327C4FCB7170140938707C06317F700F3
:1022A000032744FE23A4E18019A80327C4FCB71721
:1022B00001406316F700032744FE23A6E18083272D
:1022C00084FC9843C167636EF70C8327C4FCDC4F22
:1022D0002322F4FE232404FE5DA8832784FEC10785
:1022E0000547B317F700232EF4FC832784FC9C4397
:1022F0000327C4FDF98F2320F4FE032704FE832760
:10230000C4FD6311F708832784FE8A07232EF4FC9B
:102310008327C4FD3D47B317F700232CF4FC832724
:1023200084FD93C7F7FF032744FEF98F2322F4FEB1
:102330008327C4FD0327C4FEB317F700032744FE19
:10234000D98F2322F4FE832784FC984793078002C9
:10235000631BF700832784FEC10705473317F70087
:102360008327C4FCD8CB832784FC98479307800439
:10237000631AF700832784FE05473317F700832786
:10238000C4FC98D3832784FE85072324F4FE032707
:1023900084FE9D47E3F3E7F48327C4FC032744FE50
:1023A000D8CF0100725421618280797122D6001841
:1023B000232EA4FC232CB4FCA30704FE8327C4FD16
:1023C0009847832784FDF98F89C78547A307F4FEC3
:1023D00019A0A30704FE8347F4FE3E8532544561ED
:1023E0008280011122CE00102326A4FE2324B4FEF5
:1023F000032784FEC167FD177D8F8327C4FE98CB1A
:10240000832784FE13D707018327C4FE98D30100D6
:10241000724405618280011122CE00102326A4FEA1
:102420002324B4FE8327C4FE032784FED8CB0100F7
:10243000724405618280797122D60018AA872E879E
:10244000A30FF4FCBA87231EF4FC232604FE835753
:10245000C4FDBD8B86070D47B317F7002326F4FE96
:10246000370701408357C4FD9183C207C1838A07A0
:10247000BA9798478327C4FE93C7F7FFB706014072
:102480000356C4FD1182420641827D8F93172600B8
:10249000B69798C7370701408357C4FD9183C20799
:1024A000C1838A07BA9798478346F4FD8357C4FDD2
:1024B000BD8B8607B397F600B70601400356C4FDEF
:1024C0001182420641825D8F93172600B69798C706
:1024D0000100325445618280011122CE0010232672
:1024E000A4FE0327C4FE23A8E18401007244056111
:1024F0008280397122DE80002326A4FC03A7018597
:1025000085476312F7088327C4FC98338547631017
:10251000F7048327C4FC9C233E878327C4FCBC2389
:102520009607E207E18793E707F8E207E18793F769
:10253000F70F2326E4FEA305F4FE37E700E0832728
:10254000C4FEBA970347B4FE2380E7402DA8832733
:10255000C4FC9C338DEB8327C4FC9C233E878327DC
:10256000C4FCBC23960793F7F70F2322E4FEA301D4
:10257000F4FE37E700E0832744FEBA97034734FEB2
:102580002380E74001008327C4FCDC439DC78327E9
:10259000C4FC9C23232EF4FC8327C4FDFD8B05473C
:1025A000B316F70037E700E08327C4FD95839387D0
:1025B00007048A07BA9794C33DA08327C4FC9C23D1
:1025C000232CF4FC832784FDFD8B0547B316F7000D
:1025D00037E700E0832784FD9583938707068A0702
:1025E000BA9794C30100010072542161828079710D
:1025F00022D60018232EA4FC232604FEB777004021
:102600009C432326F4FE8327C4FE93F7F7F9232681
:10261000F4FE0327C4FE8327C4FDD98F2326F4FECE
:10262000B77700400327C4FE98C3010032544561C8
:102630008280797122D60018AA87A30FF4FC232682
:1026400004FEB77700409C432326F4FE8327C4FE94
:10265000F59B2326F4FEB77700400327C4FE98C3FA
:1026600037E700E08567BA9783A707D1B7E600E0B0
:1026700013E747008567B69723A8E7D00347F4FD23
:1026800085476313F70237E700E08567BA9783A7AA
:1026900007D1B7E600E013F777FF8567B69723A861
:1026A000E7D07300501071A837E700E08567BA974C
:1026B00083A707D12324F4FE37E700E08567BA97A4
:1026C00083A707D1B7E600E013E787028567B697CF
:1026D00023A8E7D037E700E08567BA9783A707D13B
:1026E00013F7F7FD832784FE93F70702B7E600E0B0
:1026F0005D8F8567B69723A8E7D0010037E700E034
:102700008567BA9783A707D1B7E600E013E787008C
:102710008567B69723A8E7D073005010010037E70C
:1027200000E08567BA9783A707D1B7E600E013E713
:1027300087008567B69723A8E7D073005010010083
:10274000010037E700E08567BA9783A707D1B7E6AE
:1027500000E013F7B7FF8567B69723A8E7D001001D
:10276000325445618280797122D60018232EA4FC50
:10277000232604FEB7770040D8438327C4FDF98F92
:1027800089C785472326F4FE19A0232604FE832744
:10279000C4FE3E85325445618280011106CE22CCB2
:1027A000001085472326F4FE2D2D854537050010A2
:1027B000B12A13050006253D2945AD25114565378C
:1027C000AA8799E3232604FE014515358327C4FE15
:1027D0003E85F240624405618280797122D60018FC
:1027E000232EA4FC232604FE232404FE8327C4FDF9
:1027F0003777DC02130707C098C3B7170240DC43E2
:1028000093F7070F2326F4FE8327C4FE9183232624
:10281000F4FEB7070020138787138327C4FEBA97F7
:102820009C2393F7F70F2324F4FEB7170240DC43F1
:1028300093F7070881EF8327C4FD9843832784FE1D
:102840003357F7028327C4FDD8C319A88327C4FDD3
:102850009843832784FE3357F7008327C4FDD8C3EA
:102860008327C4FDD8438327C4FD98C78327C4FDAD
:10287000D8438327C4FDD8C7010032544561828004
:10288000011122CE00102326A4FE2324B4FE8327A8
:1028900084FE99CBB7170240D44BB71702400327E9
:1028A000C4FE558FD8CB21A8B7170240D44B83273D
:1028B000C4FE13C7F7FFB7170240758FD8CB0100CE
:1028C000724405618280011122CE00102326A4FEED
:1028D0002324B4FE832784FE99CBB7170240944F7C
:1028E000B71702400327C4FE558F98CF21A8B7170A
:1028F0000240944F8327C4FE13C7F7FFB717024067
:10290000758F98CF0100724405618280011122CE3B
:1029100000102326A4FE2324B4FE832784FE99CB33
:10292000B7170240D44FB71702400327C4FE558F94
:10293000D8CF21A8B7170240D44F8327C4FE13C7AE
:10294000F7FFB7170240758FD8CF010072440561B9
:102950008280797122D60018232EA4FC232CB4FC8B
:10296000231704FE8327C4FD9E232317F4FE0327A9
:10297000C4FDB7370140938707C06308F7000327FA
:10298000C4FDB70700406310F7028357E4FE93F7D6
:10299000F7F82317F4FE832784FDBE230357E4FED4
:1029A000D98F2317F4FE8357E4FE93F7F7CF23174D
:1029B000F4FE832784FDFE230357E4FED98F2317FB
:1029C000F4FE8327C4FD0357E4FE9AA3832784FD06
:1029D000DA238327C4FDDAB7832784FD9A2383276C
:1029E000C4FD9AB70327C4FDB7370140938707C0DA
:1029F0006308F7000327C4FDB70700406319F70019
:102A0000832784FD9C273E878327C4FD9ABB8327A9
:102A1000C4FD0547DAAB01003254456182800111E3
:102A200022CE00102326A4FE2324B4FE832784FE96
:102A300099CF8327C4FE9E23C207C18393E7170063
:102A40001397070141838327C4FE9AA329A88327EC
:102A5000C4FE9E23C207C183F99B139707014183DC
:102A60008327C4FE9AA3010072440561828001118C
:102A700022CE00102326A4FEAE872322C4FE2315F7
:102A8000F4FE832744FE85C38327C4FEDE27C207E6
:102A9000C1830357A4FED98F13970701418383276E
:102AA000C4FEDAA725A08327C4FEDE2713970701FB
:102AB00041838357A4FE93C7F7FFC207C183F98FF1
:102AC0001397070141838327C4FEDAA701007244EC
:102AD00005618280797122D60018232EA4FCAE876E
:102AE000231DF4FC232604FE231504FE231404FEF8
:102AF0008327C4FD9E2BC207C1830357A4FDF98F12
:102B00002315F4FE8327C4FDDE27C207C1830357C4
:102B1000A4FDF98F2314F4FE8357A4FE81CB8357C1
:102B200084FE89C785472326F4FE19A0232604FEC8
:102B30008327C4FE3E85325445618280011122CE36
:102B400000102326A4FEAE872315F4FE8357A4FEAF
:102B500093C7F7FF1397070141838327C4FE9AABFE
:102B600001007244056182805D7186C6A2C480083E
:102B7000232EA4FA232CB4FA232404FE232604FED5
:102B8000232204FE232004FE232E04FC8327C4FBFF
:102B9000232EF4FC8327C4FB9E2BC207C18323246E
:102BA000F4FE032784FEB567FD17F98F2324F4FE96
:102BB000832784FBFE233E87832784FED98F23242B
:102BC000F4FE832784FE1397070141838327C4FB08
:102BD0009AAB8327C4FBDE27C207C1832324F4FEFC
:102BE000032784FEBD679387379FF98F2324F4FE64
:102BF000832784FBDA23832784FB9E27D98F1397AF
:102C000007014183832784FBBE27D98FC207C18375
:102C10003E87832784FED98F2324F4FE832784FEF6
:102C20001397070141838327C4FBDAA78327C4FBDB
:102C3000DE2BC207C1832324F4FE032784FEC16771
:102C40009387F7CFF98F2324F4FE832784FBDE27B5
:102C50003E87832784FED98F2324F4FE832784FEB6
:102C60001397070141838327C4FBDAAB9307C4FCA6
:102C70003E85EFF09FB60327C4FDB7470140938719
:102C800007806317F700832784FD2326F4FE29A01D
:102C9000832744FD2326F4FE0327C4FEBA87860754
:102CA000BA978E073E97832784FB9C438A07B357C6
:102CB000F7022322F4FE032744FE93074006B3578E
:102CC000F70292072324F4FE832784FE13D74700DC
:102CD00093074006B307F702032744FEB307F74004
:102CE0002320F4FE832704FE92071387270393070C
:102CF0004006B357F702BD8B032784FED98F2324E8
:102D0000F4FE832784FE1397070141838327C4FBC6
:102D10009AA70100B640264461618280011122CE4B
:102D200000102326A4FE2324B4FE832784FE85C33B
:102D30008327C4FEDE271397070141838967D98F54
:102D40001397070141838327C4FEDAA705A08327D1
:102D5000C4FEDE27139707014183F977FD17F98F2A
:102D60001397070141838327C4FEDAA70100724449
:102D700005618280011122CE00102326A4FEAE87B9
:102D80002315F4FE8357A4FE93F7F71F139707014B
:102D900041838327C4FEDAA3010072440561828067
:102DA000797122D60018232EA4FCAE87231DF4FCD3
:102DB000232604FE8327C4FD9E23C207C183035735
:102DC000A4FDF98FC207C18389C785472326F4FE76
:102DD00019A0232604FE8327C4FE3E853254456194
:102DE0008280411122C60008B707002003A7871A76
:102DF000B7177A0093870720B357F70213F7F70F37
:102E0000238AE18483C741853E879307803EB307C9
:102E1000F702139707014183239BE18401003244A9
:102E200041018280797122D60018232EA4FCB7F6C6
:102E300000E0D042B7F600E0799AD0C283C641855F
:102E400036868326C4FDB386C6022326D4FEB7F693
:102E500000E00326C4FE3287814798CADCCAB7F770
:102E600000E09843B7F700E01367070198C3B7F78E
:102E700000E09843B7F700E01367170298C301001A
:102E8000B7F700E0DC4313F717008547E31AF7FEB6
:102E9000B7F700E09843B7F700E0799B98C30100CB
:102EA000325445618280797122D60018232EA4FC09
:102EB000B7F600E0D042B7F600E0799AD0C283D6E8
:102EC000618536868326C4FDB386C6022326D4FEDA
:102ED000B7F600E00326C4FE3287814798CADCCAF1
:102EE000B7F700E09843B7F700E01367070198C30E
:102EF000B7F700E09843B7F700E01367170298C3ED
:102F00000100B7F700E0DC4313F717008547E31A29
:102F1000F7FEB7F700E09843B7F700E0799B98C356
:102F20000100325445618280397106DE22DC800066
:102F30002326A4FC8545916713858700EFF0BF9891
:102F4000930700402322F4FE85472324F4FEE14743
:102F50002326F4FE930744FEBE85B7170140138570
:102F600007C0EFF08F888327C4FC232AF4FC231CBE
:102F700004FC231D04FC231E04FC231004FEA147B3
:102F8000231FF4FC930744FDBE85B747014013851A
:102F90000780EFF07FBD8545B74701401385078067
:102FA000B53B0100F250625421618280797106D6EE
:102FB00022D40018232EA4FC232CB4FC232AC4FC06
:102FC000232604FE232604FE81A0010093050004AD
:102FD000B747014013850780E133AA87E5DB8327E4
:102FE00084FD13871700232CE4FC83870700C207A6
:102FF000C183BE85B747014013850780A53B832762
:10300000C4FE85072326F4FE0327C4FE832744FD60
:10301000E34DF7FA832744FD3E85B25022544561C3
:103020008280011122CE00102326A4FE03A7018175
:103030008327C4FE3E979387C197636DF70003A76C
:1030400001818327C4FE3E97B757002093870780EE
:1030500063F4E700FD5739A803A701818327C4FE65
:103060003E9723A8E18003A701818327C4FEB3070D
:10307000F040BA973E857244056182805D7122D42A
:1030800006D62A842EDA32DC36DEBAC0BEC2C2C40C
:10309000C6C603A5418111C51C4D81E72AC6912BE7
:1030A00032450C455418228636CEEF001021B2501E
:1030B000225461618280011126CA06CE22CC4AC800
:1030C0004EC652C4AA8419E11C4502901C4D2E899B
:1030D000ADE305239C4C8044B9CF9717000093873C
:1030E000A75E631DF404C0407C50858B99E75E2485
:1030F00093F7072099E3284C8D2D5E24A18B99C36B
:103100001C48D5E3A28526859D2A51CDFD547C50CF
:10311000858B99E75E2493F7072099E3284CB9251E
:10312000F24062444249B249224A2685D2440561AE
:10313000828000455DB726856D2945B79717000049
:10314000938787566314F400804479BF9717000073
:1031500093878753E31AF4F8C04479B71CC4050970
:1031600063C807021C401387170018C08CA31C44B7
:1031700083450900FD17FDF11CC463D907022286AF
:10318000A94526853D28FD57E302F5F8A94441B736
:10319000184C63C4E700E39745FD22862685152079
:1031A000E31735FDA5B7FD59294AD1B71C40138750
:1031B000170018C0294798A3D1BFAA8503A541814C
:1031C000DDBD011122CC26CA4AC806CE4EC6AA844D
:1031D0002E89328401C51C4D91E3212997170000E7
:1031E0009387874E6317F402C0401C4C1CC45E24B6
:1031F000A18B99C31C4895EFA2852685492015C946
:103200007D59F2406244D244B2494A85424905613F
:10321000828097170000938727496314F400804445
:10322000E9B79717000093872746E310F4FCC044E2
:103230006DBF1C4808409379F90F1379F90F1D8D64
:103240005C486346F500A2852685912C55F91C44FF
:103250000505FD171CC41C401387170018C02380E8
:1032600037015C486388A7005E24858BD9DBA947BA
:10327000E319F9F8A28526851D2441D551B74111DE
:1032800022C426C24AC006C683A441812A892E844C
:1032900089C49C4C99E32685A92E97170000938733
:1032A000A7426313F402C0408317C40013F78700DA
:1032B00025E713F707010DEB25472320E90093E7E6
:1032C00007045EA47D5571A0971700009387C73D42
:1032D0006314F4008044C9BF971700009387C73A6E
:1032E000E314F4FCC044C9B7918B9DC34C5889C901
:1032F000930744046384F5004A85B92B232A04020A
:103300005E242322040093F7B7FD5EA41C481CC072
:103310005E2493E787005EA41C4899EB5E241307A4
:10332000002093F707286385E700A2854A85612975
:103330008317C40013F717001DC358482324040043
:103340003307E04018CC1848014501E713F7070898
:103350003DF7B2402244924402494101828013F772
:103360002700814611E3544814C4F1BF8397C50078
:10337000011122CC26CA06CE4AC84EC613F78700D2
:10338000AA842E8479E3D8416345E000B8416356AE
:10339000E008585459C3B18303A90400858B23A0C6
:1033A00004000C50A9CB70485E24918B99C75C40F7
:1033B0001D8E5C5899C33C401D8E5C540C50814658
:1033C00026858297FD57630CF5041C480567232268
:1033D00004001CC05E24F98F91C368C84C5823A018
:1033E000240185CD930744046384F5002685AD212F
:1033F000232A04021DA00146854626850297FD5713
:103400002A86E313F5FA9C40C5D375476385E70028
:1034100059476395E70623A024010145B5A09840CC
:103420008317C40001CFF5466305D700D946631959
:10343000D7041C48232204001CC04DB71848B18390
:103440002322040018C0858B41BF83A90501E386B0
:1034500009FC03A905008D8B23A0350133093941EF
:10346000014791E3D84918C4E35920FB1C540C5080
:10347000CA864E8626858297634FA0008317C400B4
:1034800093E707045EA47D55F2406244D24442496A
:10349000B24905618280AA993309A940F1B79C49D4
:1034A000411106C622C426C281EB8144B2402244A7
:1034B0002685924441018280AA842E8401C51C4D38
:1034C00091E3052A9717000093870720631CF402F5
:1034D000C0408317C400F1DB7850058B11E793F7E8
:1034E000072099E3284C51242685A28541357C503C
:1034F000AA84858BC5FF5E2493F70720C5FB284C63
:10350000B5246DB7971700009387071A6314F4006A
:103510008044C1B79717000093870717E31BF4FA9D
:10352000C04445BF411122C406C62A844EA572A5D7
:10353000232005002322050023240500232205065D
:1035400023280500232A0500232C05002146814558
:103550001305C505EFC07FBD9717000093878784CB
:103560005CD0971700009387A7861CD4971700009C
:103570009387878A5CD4971700009387E78CB240C3
:1035800000D01CD822444101828097050000938519
:1035900045F1BDA2411126C2930780069384F5FF31
:1035A000B384F4024AC02E8922C406C69385440718
:1035B000692E2A8401CD232005002322250131050F
:1035C00008C4138684068145EFC03FB6B240228509
:1035D000224492440249410182801385C18571A22F
:1035E0001385C18561A21385018641A213850186D9
:1035F000B5AA411122C406C62A84F5371C4C89C7D6
:103600002244B2404101DDB797070000938727F8B5
:103610001CD423240404232604042328040483A79D
:10362000C1816394870085471CCC22853D2048C01A
:103630002285252008C422850D2048C44840014623
:103640009145CD3508440546A545E93D4844094620
:10365000C945C93D85471CCC65B7411126C24AC042
:1036600006C622C42A89953F83A4C1819C4C99E354
:1036700026854137938484048044DC40FD1763D65B
:1036800007009C40BDC38440C5BF0317C40039EB8D
:10369000C17785075CC41305840523220406E9204D
:1036A0008137214623200400232404002322040020
:1036B00023280400232A0400232C04008145130539
:1036C000C405EFC09FA6232A0402232C040223244E
:1036D000040423260404B240228522449244024971
:1036E000410182801304840651BF91454A855D35AE
:1036F00088C02A8449F9ED35B1472320F900E1BF9C
:10370000797122D44AD04ECE52CC5AC85EC606D663
:1037100026D256CA2A892E8A130485048149054B6C
:10372000FD5B0444832A4400FD1A63D00A02004072
:103730006DF8B250225492540259624AD24A424B16
:10374000B24B4E85F24945618280DE24637BFB00EB
:103750008397E40063877701A6854A85029AB3E9D7
:10376000A90093848406C9B78280828082805971BF
:10377000A2D42E848395E500A6D2CAD086D6B28480
:10378000368963D205025E2493F707088DEB130791
:103790000040B65026542320F90098C0065996548C
:1037A0000145656182803000D52DE34E05FC32472E
:1037B000BD67F98F7977BA9793B71700C9BF81476B
:1037C00013070004F9B7DE25797122D406D626D274
:1037D0004AD04ECE898B2E8491CF930774041CC09F
:1037E0001CC885475CC8B250225492540259F24911
:1037F0004561828074003000AA84953FA2492A89DD
:103800002685CE85992219E98317C40013F707206E
:1038100079FBF19B93E727005EA4C1B797070000EF
:103820009387E7D69CD45E2408C008C893E70708AE
:103830005EA4B247232A340199CB8315E400268580
:10384000512511C55E24F19B93E717005EA45E2409
:1038500033E527014AA441BFD1CD83A7C5FF01119C
:1038600022CC06CE1384C5FF63D307003E942AC63C
:10387000752D138781861C43324581EB232204007A
:1038800000C36244F240056175A5637DF4001040F9
:10389000B306C4006396D7009443DC43B29614C0C9
:1038A0005CC0F9BF3E87DC4399C3E37DF4FE14435B
:1038B0003306D700631F86001040B29614C3330648
:1038C000D700E390C7FC9043DC43B29614C35CC3BB
:1038D0004DBF6375C400B1471CC165B71040B30646
:1038E000C4006396D7009443DC43B29614C05CC016
:1038F00040C341BF828041114AC01389418683275A
:10390000090022C426C206C6AA842E8489E78145FE
:10391000A5212320A900A2852685B9297D59631AEE
:1039200025017D54B240228522449244024941013E
:103930008280130435007198E30685FEB305A44028
:1039400026851D29E31025FFE9BF011126CA9384AE
:103950003500F1984AC806CE22CC4EC6A104B14724
:103960002A8963F3F406B14463E2B4064A857D2BE9
:103970009389818683A709003E8425E4A6854A852C
:103980009D3FFD572A846314F50C03A40900A28708
:10399000D5E78329040081454A85A299F12E6392D7
:1039A000A90A1C408D049D8CF198A104B14763F3D2
:1039B000F400B144A6854A853D3FFD576303F508F1
:1039C0001C40A6971CC03DA8E3D004FAB1472320B1
:1039D000F9000145F2406244D2444249B2490561CE
:1039E00082801440858E63C806042D47637DD7020C
:1039F00004C0330794006396870223A0E9005C406B
:103A000014C35CC34A853D231305B40093074400E7
:103A100061993307F540E30FF5FA3A94898F1CC09A
:103A200055BFD8C3E9BF58406395870023A0E9007C
:103A3000D1BFD8C3C1BFA287404081B73E84DC4319
:103A400081BFB1472320F9004A85ED2159B704C150
:103A500055BF1C46FD171CC663DA0700184E63C528
:103A6000E700A9476394F5006FF0AFF51C422E857F
:103A70001387170018C28CA38280011122CC26CA9A
:103A80004AC84EC652C406CE2A89AE893284B304CF
:103A9000D6007D5A63149400014501A80C204E867F
:103AA0004A85453F0504E31745FFF2406244D2448E
:103AB0004249B249224A05618280357122CD26CB26
:103AC0004AC94EC706CF52C556C35AC1DEDEE2DC34
:103AD000E6DAAA892E843289B68409C51C4D99E399
:103AE000EFF03FB197170000938707BE6319F40406
:103AF00003A449007C50858B81EB5E2493F707205B
:103B000081E7284CEFF07FC65E24A18B99C31C4847
:103B1000ADE3A2854E85EFF08FF621CD7C50858BED
:103B2000A9C37D55FA406A44DA444A49BA492A4A47
:103B30009A4A0A4BF65B665CD65C0D6182809717E9
:103B40000000938767B66315F40003A489005DB78E
:103B500097170000938747B3E31EF4F803A4C90046
:103B600051BF5E2493F70720CDFF284CEFF01FC014
:103B70004DBF93070002A304F1029307000302D292
:103B80002305F10226C6930B5002971A0000938A70
:103B9000AAB5054C294BCA849C2099C3639977091F
:103BA000B38C2441638D2401E6864A86A2854E8526
:103BB000E935FD576307F5189257E6973ED29C20EA
:103BC00063810718FD571389140002C802CE3ECA4C
:103BD00002CCA309010482D4834509001546568509
:103BE000152EC2479304190029E513F7070109C7E9
:103BF00013070002A309E10413F7870009C713079D
:103C0000B002A309E104834609001307A002638AF6
:103C1000E602F247CA84814625469820938514001F
:103C2000130707FD6373E6068DC63ECE1DA085040F
:103C3000A5B7330555413315AC00C98F3EC8268959
:103C400061BF324793064700184336C663480702F0
:103C50003ACE98209307E002631CF704983093074C
:103C6000A002631AF702B2478904138747009C43F6
:103C70003AC663D30700FD573ECA1DA83307E0408C
:103C800093E727003ACE3EC8E9B7B3876703AE840F
:103C90008546BA9759B7850402CA814681472546A9
:103CA000982093851400130707FD6372E606E9F672
:103CB0008C200D4617150000130585A3A12C11CDEE
:103CC000971700009387C7A21D8DC24713070004F2
:103CD0003317A700D98F85043EC88C2019461715C5
:103CE0000000130525A1138914002304B1021D242B
:103CF00035C99307000095E74247B247137707108D
:103D000009CF91073EC69257D2973ED269B5B38785
:103D10006703AE848546BA9761B79D07E19BA1070B
:103D2000D5B7780097060000938666D522860C08E2
:103D30004E8597000000E7000000FD572A8AE31433
:103D4000F5FC7C50858B81EB5E2493F7072081E79F
:103D5000284CEFF0BFA15E2493F70704E39307DC40
:103D60001255C9B3780097060000938646D1228683
:103D70000C084E85E12CD1B7411122C42A842E852E
:103D800023A6018606C6EFF0CFA9FD576316F500FE
:103D900083A7C18691C31CC0B240224441018280E6
:103DA000411122C42E848395E50006C6312B634958
:103DB00005007C48AA977CC8B24022444101828019
:103DC0005E247D777D17F98F5EA4FDB7DE25011196
:103DD00022CC26CA4AC84EC606CE93F70710AA843C
:103DE0002E843289B68991C78395E50089460146BC
:103DF000ED285E247D777D17F98F8315E4005EA49E
:103E00006244F240CE864A86B24942492685D2446F
:103E1000056125A8411122C42E848395E50006C6BC
:103E2000E9207D575E24631AE5007D777D17F98FC1
:103E30005EA4B2402244410182800567D98F5EA40E
:103E400068C8C5BF8395E5003DA0411122C42A84FE
:103E50002E85B285368623A6018606C6EFF00F951D
:103E6000FD576316F50083A7C18691C31CC0B240FD
:103E7000224441018280411122C42A842E8523A636
:103E8000018606C6BD21FD576316F50083A7C186CE
:103E900091C31CC0B240224441018280411122C41E
:103EA0002A842E85B28523A6018606C68929FD5758
:103EB0006316F50083A7C18691C31CC0B24022449B
:103EC00041018280411122C42A842E8523A60186C5
:103ED00006C62529FD576316F50083A7C18691C341
:103EE0001CC0B240224441018280411122C42A8474
:103EF0002E85B285368623A6018606C62929FD575A
:103F00006316F50083A7C18691C31CC0B24022444A
:103F10004101828093F5F50F2A966314C50001458F
:103F200082801C21E38EB7FE0505C5BF1385818500
:103F30006FF0BF83138581856FF05F83797156CAF7
:103F40009C49BA8A984522D44AD04ECE52CC06D645
:103F500026D25AC85EC6AA892E843289368A63D38D
:103F6000E700BA872320F9000347340401C7850717
:103F70002320F9001C4093F7070291C7832709000B
:103F800089072320F9000440998891E8130B9401D4
:103F9000FD5B5C4403270900998F63CCF4048347DD
:103FA0003404B336F0001C4093F70702A5EB130668
:103FB0003404D2854E85829AFD576303F5041C4074
:103FC00011478144998B6399E70044448327090092
:103FD0009D8C63D3040081441C4418486354F7004B
:103FE000998FBE94014969047D5B6398240501455E
:103FF00009A885465A86D2854E85829A631E750128
:104000007D55B250225492540259F249624AD24A22
:10401000424BB24B456182808504A5BF3307D40073
:1040200013060003A301C704034754049387160033
:10403000A2978906A381E7049DBF85462286D28583
:104040004E85829AE30E65FB050945B7797122D446
:104050004AD04ECE52CC06D626D256CA5AC803C82B
:104060008501930780072A892E84B289368A63E204
:104070000703930720069386350463E10703630C67
:10408000081C9307800517060000130626676308BF
:10409000F814930424042301040515A89307D8F900
:1040A00093F7F70F5546E366F6FE17060000130672
:1040B00066678A07B2979C43B29782871C439384B2
:1040C0002504938647009C4314C32381F504854748
:1040D0006DA290411C43137506089385470029C1C2
:1040E0009C430CC3584063DF07129305D002A30121
:1040F000B40418C4635E0702B307F040170600005B
:104100001306C65F2948B68433F70703FD143297B8
:10411000182398A03E87B3D70703E37707FF85A04E
:104120009C43137506040CC355DDC207C1875DBFF0
:104130006D9A10C0D1B790411C4313750608938542
:10414000470001C50CC39C4331A0137606040CC381
:104150007DDA9E231307F006170600001306065AA1
:104160006310E80C2148A3010404584018C4E34C30
:1041700007F80C40ED990CC0D9F7B68449F7A14770
:10418000631EF8001C40858B91CB58401C4863C7C8
:10419000E70093070003A38FF4FEFD14858E14C877
:1041A0005287CE867000A2854A85EFF03FD9FD5A2E
:1041B0006319550D7D55B250225492540259F2495B
:1041C000624AD24A424B456182809C4193E7070292
:1041D0009CC1130880071706000013066653A3024C
:1041E00004050C401C4313F80508138547006305BC
:1041F000080008C39C4339A013F8050408C3E30B67
:1042000008FE9E2313F7150001C793E505020CC0B5
:1042100099C3414889BF18401377F7FD18C0D5BF2F
:10422000294891B7170600001306464D294835BFA7
:1042300090411C43CC491378060813854700630658
:10424000080008C39C438CC339A008C31376060436
:104250009C4375DA8EA323280400B68491B71C43CF
:10426000D04181459386470014C384432685EFF0EF
:104270007FCA19C1058D48C05C401CC8A301040455
:1042800005B714482686CE854A85029AE30455F37D
:104290001C40898B8DE7B2474844E35EF5F03E85CC
:1042A00019BF85465686CE854A85029AE30465F194
:1042B00085045C443247998FE3C5F4FEE9BF81442D
:1042C000930A94017D5BF5B7411122C42A842E859F
:1042D000B285368623A6018606C6A120FD57631641
:1042E000F50083A7C18691C31CC0B240224441019E
:1042F00082809307800523A6F1867D5582809307EF
:10430000800523A6F1867D5582809307800523A62C
:10431000F186014582809307800523A6F1867D55AD
:1043200082809307800523A6F1867D558280000058
:1043300053797374656D436C6B3A25640D0A000004
:104340004368697049443A253038780D0A00000006
:104350004B42205363616E20496E6974204F4B219C
:104360000D00000054494D3320496E6974204F4BB5
:10437000210D00002E2D00002D2E2E2E00000000FD
:104380002D2E2D2E000000002D2E2E002E000000C0
:104390002E2E2D2E000000002D2D2E002E2E2E2E26
:1043A000000000002E2E00002E2D2D2D00000000FC
:1043B0002D2E2D002E2D2E2E000000002D2D000064
:1043C0002D2E00002D2D2D002E2D2D2E0000000055
:1043D0002D2D2E2D000000002E2D2E002E2E2E0015
:1043E0002D0000002E2E2D002E2E2E2D0000000060
:1043F0002E2D2D002D2E2E2D000000002D2E2D2DCA
:10440000000000002D2D2E2E000000002D2D2D2D42
:104410002D0000002E2D2D2D2D0000002E2E2D2DD7
:104420002D0000002E2E2E2D2D0000002E2E2E2EC3
:104430002D0000002E2E2E2E2E0000002D2E2E2EB2
:104440002E0000002D2D2E2E2E0000002D2D2D2EA5
:104450002E0000002D2D2D2D2E000000000000004C
:10446000536C6565700D000057616B650D000000B1
:104470009A06000090050000B6050000DC0500006B
:1044800002060000280600004E0600007406000028
:10449000B40D0000B40D0000140D0000640D000008
:1044A000B40D0000B40D0000B40D0000B40D000008
:1044B000B40D0000CA120000780C0000CC0C000003
:1044C000E211000022100000C2120000D010000013
:1044D000C2120000D20F0000DA0D0000C21200006C
:1044E000E40F00000A100000C2110000CE1200000C
:1044F0006A0F0000040E00001C0E0000D60E000023
:104500006A0F00006A0F00006A0F00006A0F0000C7
:104510006A0F00006A0F00006A0F00006A0F0000B7
:104520006A0F00006A0F00006A0F00006A0F0000A7
:104530006A0F00006A0F00006A0F00006A0F000097
:104540006A0F00006A0F00006A0F00006A0F000087
:104550006A0F00006A0F00006A0F00006A0F000077
:104560006A0F00006A0F00006A0F00006A0F000067
:104570006A0F0000460E00008C0E000012010002BF
:1045800000000040861A00FE000101020301000045
:1045900009023B00020100A03209040000010301EE
:1045A0000100092111010001223E000705810308D5
:1045B000000A0904010001030102000921100100A1
:1045C00001223400070582030800010005010906E5
:1045D000A101050719E029E71500250175019508D6
:1045E000810295017508810195037501050819017E
:1045F000290391029505750191019506750826FF1D
:10460000000507190029918100C000000501090279
:10461000A1010901A10005091901290315002501BE
:104620007501950381027505950181010501093028
:10463000093109381581257F750895038106C0C0A9
:104640000E037700630068002E0063006E00000018
:104650001A034D006F0072007300650020004B00CC
:1046600065007900700061006400000016033000EE
:104670003100320033003400350036003700380096
:1046800039000000000000000000000000000000F1
:10469000000000000000000000000000000000001A
:1046A000000000000000000000000000000000000A
:1046B00000000000000000000000000000000000FA
:1046C00000000000000000000000000000000000EA
:1046D00000000000000000000000000000000000DA
:1046E00000000000232D302B20000000686C4C00DF
:1046F000656667454647000030313233343536371A
:1047000038394142434445460000000030313233DD
:1047100034353637383961626364656600000000FD
:104720009CF9FFFFB2F9FFFF72F9FFFF72F9FFFF7B
:1047300072F9FFFF72F9FFFFB2F9FFFF72F9FFFF95
:1047400072F9FFFF72F9FFFF72F9FFFF10FBFFFF25
:1047500016FAFFFFAAFAFFFF72F9FFFF72F9FFFFD7
:104760003EFBFFFF72F9FFFF16FAFFFF72F9FFFF32
:0847700072F9FFFFB2FAFFFF2E
:1047780001020304050607080102030405060708E9
:1047880074430000040000007843000005000000A6
:104798008043000006000000884300000700000076
:1047A8008C4300000800000090430000090000004E
:1047B800984300000A0000009C4300000B00000022
:1047C800A44300000C000000A84300000D000000F6
:1047D800B04300000E000000B44300000F000000CA
:1047E800BC43000010000000C0430000110000009E
:1047F800C443000012000000C8430000130000007A
:10480800D043000014000000D84300001500000049
:10481800DC43000016000000E04300001700000021
:10482800E443000018000000E843000019000000FD
:10483800F04300001A000000F44300001B000000D1
:10484800FC4300001C000000044400001D000000A0
:104858000C44000027000000144400001E00000063
:104868001C4400001F000000244400002000000039
:104878002C44000021000000344400002200000005
:104888003C440000230000004444000024000000D1
:104898004C4400002500000054440000260000009D
:1048A8005C4400002C000000010203040506070810
:1048B800010203040506070800000000C4460000C2
:1048C800A44600008446000000000000000000002C
:1048D80000000000000000000000000000000000D0
:1048E80000000000000000000000000000000000C0
:1048F80000000000000000000000000000000000B0
:10490800000000000000000000000000000000009F
:104918000000000000000000006CDC024444444435
:1049280044444444444444442403002048010020AF
:084938000403090448010020FA
:00000001FF
